{
  "_format": "hh-sol-artifact-1",
  "contractName": "MyEpicGame",
  "sourceName": "contracts/MyEpicGame.sol",
  "abi": [
    {
      "inputs": [
        {
          "internalType": "string[]",
          "name": "characterNames",
          "type": "string[]"
        },
        {
          "internalType": "string[]",
          "name": "characterImageURIs",
          "type": "string[]"
        },
        {
          "internalType": "uint256[]",
          "name": "characterHp",
          "type": "uint256[]"
        },
        {
          "internalType": "uint256[]",
          "name": "characterAttackDmg",
          "type": "uint256[]"
        },
        {
          "internalType": "string",
          "name": "bossName",
          "type": "string"
        },
        {
          "internalType": "string",
          "name": "bossImageURI",
          "type": "string"
        },
        {
          "internalType": "uint256",
          "name": "bossHp",
          "type": "uint256"
        },
        {
          "internalType": "uint256",
          "name": "bossAttackDamage",
          "type": "uint256"
        },
        {
          "internalType": "string[]",
          "name": "allyNames",
          "type": "string[]"
        },
        {
          "internalType": "uint256[]",
          "name": "allyAttackDmg",
          "type": "uint256[]"
        }
      ],
      "stateMutability": "nonpayable",
      "type": "constructor"
    },
    {
      "anonymous": false,
      "inputs": [
        {
          "indexed": false,
          "internalType": "uint256",
          "name": "newBossHp",
          "type": "uint256"
        },
        {
          "indexed": false,
          "internalType": "uint256",
          "name": "newPlayerHp",
          "type": "uint256"
        },
        {
          "indexed": false,
          "internalType": "string",
          "name": "allyName",
          "type": "string"
        },
        {
          "indexed": false,
          "internalType": "uint256",
          "name": "allyAttackDamage",
          "type": "uint256"
        }
      ],
      "name": "AllyAttackComplete",
      "type": "event"
    },
    {
      "anonymous": false,
      "inputs": [
        {
          "indexed": true,
          "internalType": "address",
          "name": "owner",
          "type": "address"
        },
        {
          "indexed": true,
          "internalType": "address",
          "name": "approved",
          "type": "address"
        },
        {
          "indexed": true,
          "internalType": "uint256",
          "name": "tokenId",
          "type": "uint256"
        }
      ],
      "name": "Approval",
      "type": "event"
    },
    {
      "anonymous": false,
      "inputs": [
        {
          "indexed": true,
          "internalType": "address",
          "name": "owner",
          "type": "address"
        },
        {
          "indexed": true,
          "internalType": "address",
          "name": "operator",
          "type": "address"
        },
        {
          "indexed": false,
          "internalType": "bool",
          "name": "approved",
          "type": "bool"
        }
      ],
      "name": "ApprovalForAll",
      "type": "event"
    },
    {
      "anonymous": false,
      "inputs": [
        {
          "indexed": false,
          "internalType": "uint256",
          "name": "newBossHp",
          "type": "uint256"
        },
        {
          "indexed": false,
          "internalType": "uint256",
          "name": "newPlayerHp",
          "type": "uint256"
        }
      ],
      "name": "AttackComplete",
      "type": "event"
    },
    {
      "anonymous": false,
      "inputs": [
        {
          "indexed": false,
          "internalType": "address",
          "name": "sender",
          "type": "address"
        },
        {
          "indexed": false,
          "internalType": "uint256",
          "name": "tokenId",
          "type": "uint256"
        },
        {
          "indexed": false,
          "internalType": "uint256",
          "name": "characterIndex",
          "type": "uint256"
        }
      ],
      "name": "CharacterNFTMinted",
      "type": "event"
    },
    {
      "anonymous": false,
      "inputs": [
        {
          "indexed": true,
          "internalType": "address",
          "name": "from",
          "type": "address"
        },
        {
          "indexed": true,
          "internalType": "address",
          "name": "to",
          "type": "address"
        },
        {
          "indexed": true,
          "internalType": "uint256",
          "name": "tokenId",
          "type": "uint256"
        }
      ],
      "name": "Transfer",
      "type": "event"
    },
    {
      "inputs": [],
      "name": "allyAttackBoss",
      "outputs": [],
      "stateMutability": "nonpayable",
      "type": "function"
    },
    {
      "inputs": [
        {
          "internalType": "address",
          "name": "to",
          "type": "address"
        },
        {
          "internalType": "uint256",
          "name": "tokenId",
          "type": "uint256"
        }
      ],
      "name": "approve",
      "outputs": [],
      "stateMutability": "nonpayable",
      "type": "function"
    },
    {
      "inputs": [],
      "name": "attackBoss",
      "outputs": [],
      "stateMutability": "nonpayable",
      "type": "function"
    },
    {
      "inputs": [
        {
          "internalType": "address",
          "name": "owner",
          "type": "address"
        }
      ],
      "name": "balanceOf",
      "outputs": [
        {
          "internalType": "uint256",
          "name": "",
          "type": "uint256"
        }
      ],
      "stateMutability": "view",
      "type": "function"
    },
    {
      "inputs": [],
      "name": "bigBoss",
      "outputs": [
        {
          "internalType": "string",
          "name": "name",
          "type": "string"
        },
        {
          "internalType": "string",
          "name": "imageURI",
          "type": "string"
        },
        {
          "internalType": "uint256",
          "name": "hp",
          "type": "uint256"
        },
        {
          "internalType": "uint256",
          "name": "maxHp",
          "type": "uint256"
        },
        {
          "internalType": "uint256",
          "name": "attackDamage",
          "type": "uint256"
        }
      ],
      "stateMutability": "view",
      "type": "function"
    },
    {
      "inputs": [],
      "name": "checkIfUserHasNFT",
      "outputs": [
        {
          "components": [
            {
              "internalType": "uint256",
              "name": "characterIndex",
              "type": "uint256"
            },
            {
              "internalType": "string",
              "name": "name",
              "type": "string"
            },
            {
              "internalType": "string",
              "name": "imageURI",
              "type": "string"
            },
            {
              "internalType": "uint256",
              "name": "hp",
              "type": "uint256"
            },
            {
              "internalType": "uint256",
              "name": "maxHp",
              "type": "uint256"
            },
            {
              "internalType": "uint256",
              "name": "attackDamage",
              "type": "uint256"
            }
          ],
          "internalType": "struct MyEpicGame.CharacterAttributes",
          "name": "",
          "type": "tuple"
        }
      ],
      "stateMutability": "view",
      "type": "function"
    },
    {
      "inputs": [],
      "name": "getAllDefaultCharacters",
      "outputs": [
        {
          "components": [
            {
              "internalType": "uint256",
              "name": "characterIndex",
              "type": "uint256"
            },
            {
              "internalType": "string",
              "name": "name",
              "type": "string"
            },
            {
              "internalType": "string",
              "name": "imageURI",
              "type": "string"
            },
            {
              "internalType": "uint256",
              "name": "hp",
              "type": "uint256"
            },
            {
              "internalType": "uint256",
              "name": "maxHp",
              "type": "uint256"
            },
            {
              "internalType": "uint256",
              "name": "attackDamage",
              "type": "uint256"
            }
          ],
          "internalType": "struct MyEpicGame.CharacterAttributes[]",
          "name": "",
          "type": "tuple[]"
        }
      ],
      "stateMutability": "view",
      "type": "function"
    },
    {
      "inputs": [
        {
          "internalType": "uint256",
          "name": "tokenId",
          "type": "uint256"
        }
      ],
      "name": "getApproved",
      "outputs": [
        {
          "internalType": "address",
          "name": "",
          "type": "address"
        }
      ],
      "stateMutability": "view",
      "type": "function"
    },
    {
      "inputs": [],
      "name": "getBigBoss",
      "outputs": [
        {
          "components": [
            {
              "internalType": "string",
              "name": "name",
              "type": "string"
            },
            {
              "internalType": "string",
              "name": "imageURI",
              "type": "string"
            },
            {
              "internalType": "uint256",
              "name": "hp",
              "type": "uint256"
            },
            {
              "internalType": "uint256",
              "name": "maxHp",
              "type": "uint256"
            },
            {
              "internalType": "uint256",
              "name": "attackDamage",
              "type": "uint256"
            }
          ],
          "internalType": "struct MyEpicGame.BigBoss",
          "name": "",
          "type": "tuple"
        }
      ],
      "stateMutability": "view",
      "type": "function"
    },
    {
      "inputs": [
        {
          "internalType": "address",
          "name": "owner",
          "type": "address"
        },
        {
          "internalType": "address",
          "name": "operator",
          "type": "address"
        }
      ],
      "name": "isApprovedForAll",
      "outputs": [
        {
          "internalType": "bool",
          "name": "",
          "type": "bool"
        }
      ],
      "stateMutability": "view",
      "type": "function"
    },
    {
      "inputs": [
        {
          "internalType": "uint256",
          "name": "_characterIndex",
          "type": "uint256"
        }
      ],
      "name": "mintCharacterNFT",
      "outputs": [],
      "stateMutability": "nonpayable",
      "type": "function"
    },
    {
      "inputs": [],
      "name": "name",
      "outputs": [
        {
          "internalType": "string",
          "name": "",
          "type": "string"
        }
      ],
      "stateMutability": "view",
      "type": "function"
    },
    {
      "inputs": [
        {
          "internalType": "uint256",
          "name": "",
          "type": "uint256"
        }
      ],
      "name": "nftHolderAttributes",
      "outputs": [
        {
          "internalType": "uint256",
          "name": "characterIndex",
          "type": "uint256"
        },
        {
          "internalType": "string",
          "name": "name",
          "type": "string"
        },
        {
          "internalType": "string",
          "name": "imageURI",
          "type": "string"
        },
        {
          "internalType": "uint256",
          "name": "hp",
          "type": "uint256"
        },
        {
          "internalType": "uint256",
          "name": "maxHp",
          "type": "uint256"
        },
        {
          "internalType": "uint256",
          "name": "attackDamage",
          "type": "uint256"
        }
      ],
      "stateMutability": "view",
      "type": "function"
    },
    {
      "inputs": [
        {
          "internalType": "address",
          "name": "",
          "type": "address"
        }
      ],
      "name": "nftHolders",
      "outputs": [
        {
          "internalType": "uint256",
          "name": "",
          "type": "uint256"
        }
      ],
      "stateMutability": "view",
      "type": "function"
    },
    {
      "inputs": [
        {
          "internalType": "uint256",
          "name": "tokenId",
          "type": "uint256"
        }
      ],
      "name": "ownerOf",
      "outputs": [
        {
          "internalType": "address",
          "name": "",
          "type": "address"
        }
      ],
      "stateMutability": "view",
      "type": "function"
    },
    {
      "inputs": [
        {
          "internalType": "address",
          "name": "from",
          "type": "address"
        },
        {
          "internalType": "address",
          "name": "to",
          "type": "address"
        },
        {
          "internalType": "uint256",
          "name": "tokenId",
          "type": "uint256"
        }
      ],
      "name": "safeTransferFrom",
      "outputs": [],
      "stateMutability": "nonpayable",
      "type": "function"
    },
    {
      "inputs": [
        {
          "internalType": "address",
          "name": "from",
          "type": "address"
        },
        {
          "internalType": "address",
          "name": "to",
          "type": "address"
        },
        {
          "internalType": "uint256",
          "name": "tokenId",
          "type": "uint256"
        },
        {
          "internalType": "bytes",
          "name": "_data",
          "type": "bytes"
        }
      ],
      "name": "safeTransferFrom",
      "outputs": [],
      "stateMutability": "nonpayable",
      "type": "function"
    },
    {
      "inputs": [
        {
          "internalType": "address",
          "name": "operator",
          "type": "address"
        },
        {
          "internalType": "bool",
          "name": "approved",
          "type": "bool"
        }
      ],
      "name": "setApprovalForAll",
      "outputs": [],
      "stateMutability": "nonpayable",
      "type": "function"
    },
    {
      "inputs": [
        {
          "internalType": "bytes4",
          "name": "interfaceId",
          "type": "bytes4"
        }
      ],
      "name": "supportsInterface",
      "outputs": [
        {
          "internalType": "bool",
          "name": "",
          "type": "bool"
        }
      ],
      "stateMutability": "view",
      "type": "function"
    },
    {
      "inputs": [],
      "name": "symbol",
      "outputs": [
        {
          "internalType": "string",
          "name": "",
          "type": "string"
        }
      ],
      "stateMutability": "view",
      "type": "function"
    },
    {
      "inputs": [
        {
          "internalType": "uint256",
          "name": "_tokenId",
          "type": "uint256"
        }
      ],
      "name": "tokenURI",
      "outputs": [
        {
          "internalType": "string",
          "name": "",
          "type": "string"
        }
      ],
      "stateMutability": "view",
      "type": "function"
    },
    {
      "inputs": [
        {
          "internalType": "address",
          "name": "from",
          "type": "address"
        },
        {
          "internalType": "address",
          "name": "to",
          "type": "address"
        },
        {
          "internalType": "uint256",
          "name": "tokenId",
          "type": "uint256"
        }
      ],
      "name": "transferFrom",
      "outputs": [],
      "stateMutability": "nonpayable",
      "type": "function"
    }
  ],
  "bytecode": "0x60806040523480156200001157600080fd5b50604051620061db380380620061db833981810160405281019062000037919062000d9c565b6040518060400160405280600881526020017f506f6b656d6f6e730000000000000000000000000000000000000000000000008152506040518060400160405280600781526020017f504f4b454d4f4e000000000000000000000000000000000000000000000000008152508160009080519060200190620000bb92919062000b04565b508060019080519060200190620000d492919062000b04565b5050506040518060a0016040528087815260200186815260200185815260200185815260200184815250600660008201518160000190805190602001906200011e92919062000b04565b5060208201518160010190805190602001906200013d92919062000b04565b50604082015181600201556060820151816003015560808201518160040155905050620002c06040518060600160405280602a8152602001620061b1602a9139600660000180546200018f906200117e565b80601f0160208091040260200160405190810160405280929190818152602001828054620001bd906200117e565b80156200020e5780601f10620001e2576101008083540402835291602001916200020e565b820191906000526020600020905b815481529060010190602001808311620001f057829003601f168201915b5050505050600660020154600660010180546200022b906200117e565b80601f016020809104026020016040519081016040528092919081815260200182805462000259906200117e565b8015620002aa5780601f106200027e57610100808354040283529160200191620002aa565b820191906000526020600020905b8154815290600101906020018083116200028c57829003601f168201915b505050505062000a1960201b62001f421760201c565b60005b8a51811015620006dc57600c6040518060c001604052808381526020018d84815181106200031a577f4e487b7100000000000000000000000000000000000000000000000000000000600052603260045260246000fd5b602002602001015181526020018c848151811062000361577f4e487b7100000000000000000000000000000000000000000000000000000000600052603260045260246000fd5b602002602001015181526020018b8481518110620003a8577f4e487b7100000000000000000000000000000000000000000000000000000000600052603260045260246000fd5b602002602001015181526020018b8481518110620003ef577f4e487b7100000000000000000000000000000000000000000000000000000000600052603260045260246000fd5b602002602001015181526020018a848151811062000436577f4e487b7100000000000000000000000000000000000000000000000000000000600052603260045260246000fd5b602002602001015181525090806001815401808255809150506001900390600052602060002090600602016000909190919091506000820151816000015560208201518160010190805190602001906200049292919062000b04565b506040820151816002019080519060200190620004b192919062000b04565b50606082015181600301556080820151816004015560a0820151816005015550506000600c82815481106200050f577f4e487b7100000000000000000000000000000000000000000000000000000000600052603260045260246000fd5b90600052602060002090600602016040518060c00160405290816000820154815260200160018201805462000544906200117e565b80601f016020809104026020016040519081016040528092919081815260200182805462000572906200117e565b8015620005c35780601f106200059757610100808354040283529160200191620005c3565b820191906000526020600020905b815481529060010190602001808311620005a557829003601f168201915b50505050508152602001600282018054620005de906200117e565b80601f01602080910402602001604051908101604052809291908181526020018280546200060c906200117e565b80156200065d5780601f1062000631576101008083540402835291602001916200065d565b820191906000526020600020905b8154815290600101906020018083116200063f57829003601f168201915b5050505050815260200160038201548152602001600482015481526020016005820154815250509050620006c46040518060600160405280602581526020016200618c6025913982602001518360600151846040015162000a1960201b62001f421760201c565b50600181620006d49190620010e1565b9050620002c3565b5060005b8251811015620009f157600d604051806060016040528083815260200185848151811062000737577f4e487b7100000000000000000000000000000000000000000000000000000000600052603260045260246000fd5b602002602001015181526020018484815181106200077e577f4e487b7100000000000000000000000000000000000000000000000000000000600052603260045260246000fd5b60200260200101518152509080600181540180825580915050600190039060005260206000209060030201600090919091909150600082015181600001556020820151816001019080519060200190620007da92919062000b04565b506040820151816002015550506000600c828154811062000824577f4e487b7100000000000000000000000000000000000000000000000000000000600052603260045260246000fd5b90600052602060002090600602016040518060c00160405290816000820154815260200160018201805462000859906200117e565b80601f016020809104026020016040519081016040528092919081815260200182805462000887906200117e565b8015620008d85780601f10620008ac57610100808354040283529160200191620008d8565b820191906000526020600020905b815481529060010190602001808311620008ba57829003601f168201915b50505050508152602001600282018054620008f3906200117e565b80601f016020809104026020016040519081016040528092919081815260200182805462000921906200117e565b8015620009725780601f10620009465761010080835404028352916020019162000972565b820191906000526020600020905b8154815290600101906020018083116200095457829003601f168201915b5050505050815260200160038201548152602001600482015481526020016005820154815250509050620009d96040518060600160405280602581526020016200618c6025913982602001518360600151846040015162000a1960201b62001f421760201c565b50600181620009e99190620010e1565b9050620006e0565b5062000a09600b62000ac560201b62001fe41760201c565b50505050505050505050620012a2565b62000abf8484848460405160240162000a36949392919062000fa6565b6040516020818303038152906040527f8d142cdd000000000000000000000000000000000000000000000000000000007bffffffffffffffffffffffffffffffffffffffffffffffffffffffff19166020820180517bffffffffffffffffffffffffffffffffffffffffffffffffffffffff838183161783525050505062000adb60201b60201c565b50505050565b6001816000016000828254019250508190555050565b60008151905060006a636f6e736f6c652e6c6f679050602083016000808483855afa5050505050565b82805462000b12906200117e565b90600052602060002090601f01602090048101928262000b36576000855562000b82565b82601f1062000b5157805160ff191683800117855562000b82565b8280016001018555821562000b82579182015b8281111562000b8157825182559160200191906001019062000b64565b5b50905062000b91919062000b95565b5090565b5b8082111562000bb057600081600090555060010162000b96565b5090565b600062000bcb62000bc58462001031565b62001008565b9050808382526020820190508285602086028201111562000beb57600080fd5b60005b8581101562000c3a57815167ffffffffffffffff81111562000c0f57600080fd5b80860162000c1e898262000d58565b8552602085019450602084019350505060018101905062000bee565b5050509392505050565b600062000c5b62000c558462001060565b62001008565b9050808382526020820190508285602086028201111562000c7b57600080fd5b60005b8581101562000caf578162000c94888262000d85565b84526020840193506020830192505060018101905062000c7e565b5050509392505050565b600062000cd062000cca846200108f565b62001008565b90508281526020810184848401111562000ce957600080fd5b62000cf684828562001148565b509392505050565b600082601f83011262000d1057600080fd5b815162000d2284826020860162000bb4565b91505092915050565b600082601f83011262000d3d57600080fd5b815162000d4f84826020860162000c44565b91505092915050565b600082601f83011262000d6a57600080fd5b815162000d7c84826020860162000cb9565b91505092915050565b60008151905062000d968162001288565b92915050565b6000806000806000806000806000806101408b8d03121562000dbd57600080fd5b60008b015167ffffffffffffffff81111562000dd857600080fd5b62000de68d828e0162000cfe565b9a505060208b015167ffffffffffffffff81111562000e0457600080fd5b62000e128d828e0162000cfe565b99505060408b015167ffffffffffffffff81111562000e3057600080fd5b62000e3e8d828e0162000d2b565b98505060608b015167ffffffffffffffff81111562000e5c57600080fd5b62000e6a8d828e0162000d2b565b97505060808b015167ffffffffffffffff81111562000e8857600080fd5b62000e968d828e0162000d58565b96505060a08b015167ffffffffffffffff81111562000eb457600080fd5b62000ec28d828e0162000d58565b95505060c062000ed58d828e0162000d85565b94505060e062000ee88d828e0162000d85565b9350506101008b015167ffffffffffffffff81111562000f0757600080fd5b62000f158d828e0162000cfe565b9250506101208b015167ffffffffffffffff81111562000f3457600080fd5b62000f428d828e0162000d2b565b9150509295989b9194979a5092959850565b600062000f6182620010c5565b62000f6d8185620010d0565b935062000f7f81856020860162001148565b62000f8a8162001277565b840191505092915050565b62000fa0816200113e565b82525050565b6000608082019050818103600083015262000fc2818762000f54565b9050818103602083015262000fd8818662000f54565b905062000fe9604083018562000f95565b818103606083015262000ffd818462000f54565b905095945050505050565b60006200101462001027565b9050620010228282620011b4565b919050565b6000604051905090565b600067ffffffffffffffff8211156200104f576200104e62001248565b5b602082029050602081019050919050565b600067ffffffffffffffff8211156200107e576200107d62001248565b5b602082029050602081019050919050565b600067ffffffffffffffff821115620010ad57620010ac62001248565b5b620010b88262001277565b9050602081019050919050565b600081519050919050565b600082825260208201905092915050565b6000620010ee826200113e565b9150620010fb836200113e565b9250827fffffffffffffffffffffffffffffffffffffffffffffffffffffffffffffffff03821115620011335762001132620011ea565b5b828201905092915050565b6000819050919050565b60005b83811015620011685780820151818401526020810190506200114b565b8381111562001178576000848401525b50505050565b600060028204905060018216806200119757607f821691505b60208210811415620011ae57620011ad62001219565b5b50919050565b620011bf8262001277565b810181811067ffffffffffffffff82111715620011e157620011e062001248565b5b80604052505050565b7f4e487b7100000000000000000000000000000000000000000000000000000000600052601160045260246000fd5b7f4e487b7100000000000000000000000000000000000000000000000000000000600052602260045260246000fd5b7f4e487b7100000000000000000000000000000000000000000000000000000000600052604160045260246000fd5b6000601f19601f8301169050919050565b62001293816200113e565b81146200129f57600080fd5b50565b614eda80620012b26000396000f3fe608060405234801561001057600080fd5b50600436106101425760003560e01c806395d89b41116100b8578063b953084e1161007c578063b953084e1461037e578063c87b56dd1461039c578063c8cf27f4146103cc578063d4f24c5b146103ea578063e985e9c5146103f4578063f8b81ef71461042457610142565b806395d89b41146102d157806398da4c95146102ef578063a22cb46514610324578063a9c3267914610340578063b88d4fde1461036257610142565b806323b872dd1161010a57806323b872dd146101ff57806342842e0e1461021b5780636352211e1461023757806370551e521461026757806370a08231146102715780637df124a1146102a157610142565b806301ffc9a7146101475780630665f9611461017757806306fdde0314610195578063081812fc146101b3578063095ea7b3146101e3575b600080fd5b610161600480360381019061015c9190613454565b610440565b60405161016e9190613d24565b60405180910390f35b61017f610522565b60405161018c9190614102565b60405180910390f35b61019d61067e565b6040516101aa9190613d3f565b60405180910390f35b6101cd60048036038101906101c891906134a6565b610710565b6040516101da9190613c64565b60405180910390f35b6101fd60048036038101906101f89190613418565b610795565b005b61021960048036038101906102149190613312565b6108ad565b005b61023560048036038101906102309190613312565b61090d565b005b610251600480360381019061024c91906134a6565b61092d565b60405161025e9190613c64565b60405180910390f35b61026f6109df565b005b61028b600480360381019061028691906132ad565b610d37565b6040516102989190614146565b60405180910390f35b6102bb60048036038101906102b691906132ad565b610def565b6040516102c89190614146565b60405180910390f35b6102d9610e07565b6040516102e69190613d3f565b60405180910390f35b610309600480360381019061030491906134a6565b610e99565b60405161031b96959493929190614161565b60405180910390f35b61033e600480360381019061033991906133dc565b610fe5565b005b610348610ffb565b604051610359959493929190613e53565b60405180910390f35b61037c60048036038101906103779190613361565b61112f565b005b610386611191565b6040516103939190613d02565b60405180910390f35b6103b660048036038101906103b191906134a6565b61133c565b6040516103c39190613d3f565b60405180910390f35b6103d4611557565b6040516103e19190614124565b60405180910390f35b6103f261172f565b005b61040e600480360381019061040991906132d6565b611aba565b60405161041b9190613d24565b60405180910390f35b61043e600480360381019061043991906134a6565b611b4e565b005b60007f80ac58cd000000000000000000000000000000000000000000000000000000007bffffffffffffffffffffffffffffffffffffffffffffffffffffffff1916827bffffffffffffffffffffffffffffffffffffffffffffffffffffffff1916148061050b57507f5b5e139f000000000000000000000000000000000000000000000000000000007bffffffffffffffffffffffffffffffffffffffffffffffffffffffff1916827bffffffffffffffffffffffffffffffffffffffffffffffffffffffff1916145b8061051b575061051a82611ffa565b5b9050919050565b61052a6130d4565b60066040518060a0016040529081600082018054610547906144f3565b80601f0160208091040260200160405190810160405280929190818152602001828054610573906144f3565b80156105c05780601f10610595576101008083540402835291602001916105c0565b820191906000526020600020905b8154815290600101906020018083116105a357829003601f168201915b505050505081526020016001820180546105d9906144f3565b80601f0160208091040260200160405190810160405280929190818152602001828054610605906144f3565b80156106525780601f1061062757610100808354040283529160200191610652565b820191906000526020600020905b81548152906001019060200180831161063557829003601f168201915b505050505081526020016002820154815260200160038201548152602001600482015481525050905090565b60606000805461068d906144f3565b80601f01602080910402602001604051908101604052809291908181526020018280546106b9906144f3565b80156107065780601f106106db57610100808354040283529160200191610706565b820191906000526020600020905b8154815290600101906020018083116106e957829003601f168201915b5050505050905090565b600061071b82612064565b61075a576040517f08c379a000000000000000000000000000000000000000000000000000000000815260040161075190614082565b60405180910390fd5b6004600083815260200190815260200160002060009054906101000a900473ffffffffffffffffffffffffffffffffffffffff169050919050565b60006107a08261092d565b90508073ffffffffffffffffffffffffffffffffffffffff168373ffffffffffffffffffffffffffffffffffffffff161415610811576040517f08c379a0000000000000000000000000000000000000000000000000000000008152600401610808906140a2565b60405180910390fd5b8073ffffffffffffffffffffffffffffffffffffffff166108306120d0565b73ffffffffffffffffffffffffffffffffffffffff16148061085f575061085e816108596120d0565b611aba565b5b61089e576040517f08c379a000000000000000000000000000000000000000000000000000000000815260040161089590613fe2565b60405180910390fd5b6108a883836120d8565b505050565b6108be6108b86120d0565b82612191565b6108fd576040517f08c379a00000000000000000000000000000000000000000000000000000000081526004016108f4906140c2565b60405180910390fd5b61090883838361226f565b505050565b6109288383836040518060200160405280600081525061112f565b505050565b6000806002600084815260200190815260200160002060009054906101000a900473ffffffffffffffffffffffffffffffffffffffff169050600073ffffffffffffffffffffffffffffffffffffffff168173ffffffffffffffffffffffffffffffffffffffff1614156109d6576040517f08c379a00000000000000000000000000000000000000000000000000000000081526004016109cd90614022565b60405180910390fd5b80915050919050565b6000600f60003373ffffffffffffffffffffffffffffffffffffffff1673ffffffffffffffffffffffffffffffffffffffff1681526020019081526020016000205490506000600e600083815260200190815260200160002090506000600d80549050424433604051602001610a5793929190613c27565b6040516020818303038152906040528051906020012060001c610a7a91906145cd565b90506000826003015411610ac3576040517f08c379a0000000000000000000000000000000000000000000000000000000008152600401610aba90614042565b60405180910390fd5b600060066002015411610b0b576040517f08c379a0000000000000000000000000000000000000000000000000000000008152600401610b02906140e2565b60405180910390fd5b6000600d8281548110610b47577f4e487b7100000000000000000000000000000000000000000000000000000000600052603260045260246000fd5b906000526020600020906003020160405180606001604052908160008201548152602001600182018054610b7a906144f3565b80601f0160208091040260200160405190810160405280929190818152602001828054610ba6906144f3565b8015610bf35780601f10610bc857610100808354040283529160200191610bf3565b820191906000526020600020905b815481529060010190602001808311610bd657829003601f168201915b5050505050815260200160028201548152505090506000600d8381548110610c44577f4e487b7100000000000000000000000000000000000000000000000000000000600052603260045260246000fd5b9060005260206000209060030201600201549050806006600201541015610c75576000600660020181905550610c90565b80600660020154610c869190614409565b6006600201819055505b610cbb604051806060016040528060218152602001614e4860219139836020015184604001516124d6565b610ce2604051806060016040528060238152602001614d8f60239139600660020154612575565b7fb5afe205dbeda512589b3a3a828acff5b17b50e41ac141708aa15eb5f4eb06b9600660020154856003015484602001518560400151604051610d2894939291906141f9565b60405180910390a15050505050565b60008073ffffffffffffffffffffffffffffffffffffffff168273ffffffffffffffffffffffffffffffffffffffff161415610da8576040517f08c379a0000000000000000000000000000000000000000000000000000000008152600401610d9f90614002565b60405180910390fd5b600360008373ffffffffffffffffffffffffffffffffffffffff1673ffffffffffffffffffffffffffffffffffffffff168152602001908152602001600020549050919050565b600f6020528060005260406000206000915090505481565b606060018054610e16906144f3565b80601f0160208091040260200160405190810160405280929190818152602001828054610e42906144f3565b8015610e8f5780601f10610e6457610100808354040283529160200191610e8f565b820191906000526020600020905b815481529060010190602001808311610e7257829003601f168201915b5050505050905090565b600e602052806000526040600020600091509050806000015490806001018054610ec2906144f3565b80601f0160208091040260200160405190810160405280929190818152602001828054610eee906144f3565b8015610f3b5780601f10610f1057610100808354040283529160200191610f3b565b820191906000526020600020905b815481529060010190602001808311610f1e57829003601f168201915b505050505090806002018054610f50906144f3565b80601f0160208091040260200160405190810160405280929190818152602001828054610f7c906144f3565b8015610fc95780601f10610f9e57610100808354040283529160200191610fc9565b820191906000526020600020905b815481529060010190602001808311610fac57829003601f168201915b5050505050908060030154908060040154908060050154905086565b610ff7610ff06120d0565b8383612611565b5050565b600680600001805461100c906144f3565b80601f0160208091040260200160405190810160405280929190818152602001828054611038906144f3565b80156110855780601f1061105a57610100808354040283529160200191611085565b820191906000526020600020905b81548152906001019060200180831161106857829003601f168201915b50505050509080600101805461109a906144f3565b80601f01602080910402602001604051908101604052809291908181526020018280546110c6906144f3565b80156111135780601f106110e857610100808354040283529160200191611113565b820191906000526020600020905b8154815290600101906020018083116110f657829003601f168201915b5050505050908060020154908060030154908060040154905085565b61114061113a6120d0565b83612191565b61117f576040517f08c379a0000000000000000000000000000000000000000000000000000000008152600401611176906140c2565b60405180910390fd5b61118b8484848461277e565b50505050565b6060600c805480602002602001604051908101604052809291908181526020016000905b8282101561133357838290600052602060002090600602016040518060c0016040529081600082015481526020016001820180546111f2906144f3565b80601f016020809104026020016040519081016040528092919081815260200182805461121e906144f3565b801561126b5780601f106112405761010080835404028352916020019161126b565b820191906000526020600020905b81548152906001019060200180831161124e57829003601f168201915b50505050508152602001600282018054611284906144f3565b80601f01602080910402602001604051908101604052809291908181526020018280546112b0906144f3565b80156112fd5780601f106112d2576101008083540402835291602001916112fd565b820191906000526020600020905b8154815290600101906020018083116112e057829003601f168201915b505050505081526020016003820154815260200160048201548152602001600582015481525050815260200190600101906111b5565b50505050905090565b60606000600e60008481526020019081526020016000206040518060c001604052908160008201548152602001600182018054611378906144f3565b80601f01602080910402602001604051908101604052809291908181526020018280546113a4906144f3565b80156113f15780601f106113c6576101008083540402835291602001916113f1565b820191906000526020600020905b8154815290600101906020018083116113d457829003601f168201915b5050505050815260200160028201805461140a906144f3565b80601f0160208091040260200160405190810160405280929190818152602001828054611436906144f3565b80156114835780601f1061145857610100808354040283529160200191611483565b820191906000526020600020905b81548152906001019060200180831161146657829003601f168201915b505050505081526020016003820154815260200160048201548152602001600582015481525050905060006114bb82606001516127da565b905060006114cc83608001516127da565b905060006114dd8460a001516127da565b9050600061152385602001516114f2896127da565b876040015187878760405160200161150f96959493929190613b60565b604051602081830303815290604052612987565b90506000816040516020016115389190613c05565b6040516020818303038152906040529050809650505050505050919050565b61155f613103565b6000600f60003373ffffffffffffffffffffffffffffffffffffffff1673ffffffffffffffffffffffffffffffffffffffff168152602001908152602001600020549050600081111561171e57600e60008281526020019081526020016000206040518060c0016040529081600082015481526020016001820180546115e4906144f3565b80601f0160208091040260200160405190810160405280929190818152602001828054611610906144f3565b801561165d5780601f106116325761010080835404028352916020019161165d565b820191906000526020600020905b81548152906001019060200180831161164057829003601f168201915b50505050508152602001600282018054611676906144f3565b80601f01602080910402602001604051908101604052809291908181526020018280546116a2906144f3565b80156116ef5780601f106116c4576101008083540402835291602001916116ef565b820191906000526020600020905b8154815290600101906020018083116116d257829003601f168201915b50505050508152602001600382015481526020016004820154815260200160058201548152505091505061172c565b611726613103565b80925050505b90565b6000600f60003373ffffffffffffffffffffffffffffffffffffffff1673ffffffffffffffffffffffffffffffffffffffff1681526020019081526020016000205490506000600e600083815260200190815260200160002090506118426040518060600160405280603c8152602001614e69603c91398260010180546117b5906144f3565b80601f01602080910402602001604051908101604052809291908181526020018280546117e1906144f3565b801561182e5780601f106118035761010080835404028352916020019161182e565b820191906000526020600020905b81548152906001019060200180831161181157829003601f168201915b505050505083600301548460050154612b45565b61191a6040518060400160405280601b81526020017f426f73732025732068617320257320485020616e6420257320414400000000008152506006600001805461188b906144f3565b80601f01602080910402602001604051908101604052809291908181526020018280546118b7906144f3565b80156119045780601f106118d957610100808354040283529160200191611904565b820191906000526020600020905b8154815290600101906020018083116118e757829003601f168201915b5050505050600660020154600660040154612b45565b6000816003015411611961576040517f08c379a000000000000000000000000000000000000000000000000000000000815260040161195890614042565b60405180910390fd5b6000600660020154116119a9576040517f08c379a00000000000000000000000000000000000000000000000000000000081526004016119a0906140e2565b60405180910390fd5b806005015460066002015410156119ca5760006006600201819055506119e9565b80600501546006600201546119df9190614409565b6006600201819055505b60066004015481600301541015611a095760008160030181905550611a27565b6006600401548160030154611a1e9190614409565b81600301819055505b611a4e604051806060016040528060258152602001614d6a60259139600660020154612575565b611a74604051806060016040528060288152602001614df2602891398260030154612575565b7f838ab28464562786a6c4ab2311964b82fa60bd9b14aa7e856af1f3f18d41a4146006600201548260030154604051611aae9291906141d0565b60405180910390a15050565b6000600560008473ffffffffffffffffffffffffffffffffffffffff1673ffffffffffffffffffffffffffffffffffffffff16815260200190815260200160002060008373ffffffffffffffffffffffffffffffffffffffff1673ffffffffffffffffffffffffffffffffffffffff16815260200190815260200160002060009054906101000a900460ff16905092915050565b6000611b5a600b612be7565b9050611b663382612bf5565b6040518060c00160405280838152602001600c8481548110611bb1577f4e487b7100000000000000000000000000000000000000000000000000000000600052603260045260246000fd5b90600052602060002090600602016001018054611bcd906144f3565b80601f0160208091040260200160405190810160405280929190818152602001828054611bf9906144f3565b8015611c465780601f10611c1b57610100808354040283529160200191611c46565b820191906000526020600020905b815481529060010190602001808311611c2957829003601f168201915b50505050508152602001600c8481548110611c8a577f4e487b7100000000000000000000000000000000000000000000000000000000600052603260045260246000fd5b90600052602060002090600602016002018054611ca6906144f3565b80601f0160208091040260200160405190810160405280929190818152602001828054611cd2906144f3565b8015611d1f5780601f10611cf457610100808354040283529160200191611d1f565b820191906000526020600020905b815481529060010190602001808311611d0257829003601f168201915b50505050508152602001600c8481548110611d63577f4e487b7100000000000000000000000000000000000000000000000000000000600052603260045260246000fd5b9060005260206000209060060201600301548152602001600c8481548110611db4577f4e487b7100000000000000000000000000000000000000000000000000000000600052603260045260246000fd5b9060005260206000209060060201600401548152602001600c8481548110611e05577f4e487b7100000000000000000000000000000000000000000000000000000000600052603260045260246000fd5b906000526020600020906006020160050154815250600e6000838152602001908152602001600020600082015181600001556020820151816001019080519060200190611e53929190613139565b506040820151816002019080519060200190611e70929190613139565b50606082015181600301556080820151816004015560a08201518160050155905050611eb56040518060600160405280602e8152602001614e1a602e91398284612c13565b80600f60003373ffffffffffffffffffffffffffffffffffffffff1673ffffffffffffffffffffffffffffffffffffffff16815260200190815260200160002081905550611f03600b611fe4565b7f4bc303fd457a97b4691b9af582ce71868a3d258638c8d4f8c60988a0f0bfb8cd338284604051611f3693929190613ccb565b60405180910390a15050565b611fde84848484604051602401611f5c9493929190613da6565b6040516020818303038152906040527f8d142cdd000000000000000000000000000000000000000000000000000000007bffffffffffffffffffffffffffffffffffffffffffffffffffffffff19166020820180517bffffffffffffffffffffffffffffffffffffffffffffffffffffffff8381831617835250505050612cb2565b50505050565b6001816000016000828254019250508190555050565b60007f01ffc9a7000000000000000000000000000000000000000000000000000000007bffffffffffffffffffffffffffffffffffffffffffffffffffffffff1916827bffffffffffffffffffffffffffffffffffffffffffffffffffffffff1916149050919050565b60008073ffffffffffffffffffffffffffffffffffffffff166002600084815260200190815260200160002060009054906101000a900473ffffffffffffffffffffffffffffffffffffffff1673ffffffffffffffffffffffffffffffffffffffff1614159050919050565b600033905090565b816004600083815260200190815260200160002060006101000a81548173ffffffffffffffffffffffffffffffffffffffff021916908373ffffffffffffffffffffffffffffffffffffffff160217905550808273ffffffffffffffffffffffffffffffffffffffff1661214b8361092d565b73ffffffffffffffffffffffffffffffffffffffff167f8c5be1e5ebec7d5bd14f71427d1e84f3dd0314c0f7b2291e5b200ac8c7c3b92560405160405180910390a45050565b600061219c82612064565b6121db576040517f08c379a00000000000000000000000000000000000000000000000000000000081526004016121d290613fc2565b60405180910390fd5b60006121e68361092d565b90508073ffffffffffffffffffffffffffffffffffffffff168473ffffffffffffffffffffffffffffffffffffffff16148061225557508373ffffffffffffffffffffffffffffffffffffffff1661223d84610710565b73ffffffffffffffffffffffffffffffffffffffff16145b8061226657506122658185611aba565b5b91505092915050565b8273ffffffffffffffffffffffffffffffffffffffff1661228f8261092d565b73ffffffffffffffffffffffffffffffffffffffff16146122e5576040517f08c379a00000000000000000000000000000000000000000000000000000000081526004016122dc90613f42565b60405180910390fd5b600073ffffffffffffffffffffffffffffffffffffffff168273ffffffffffffffffffffffffffffffffffffffff161415612355576040517f08c379a000000000000000000000000000000000000000000000000000000000815260040161234c90613f82565b60405180910390fd5b612360838383612cdb565b61236b6000826120d8565b6001600360008573ffffffffffffffffffffffffffffffffffffffff1673ffffffffffffffffffffffffffffffffffffffff16815260200190815260200160002060008282546123bb9190614409565b925050819055506001600360008473ffffffffffffffffffffffffffffffffffffffff1673ffffffffffffffffffffffffffffffffffffffff16815260200190815260200160002060008282546124129190614328565b92505081905550816002600083815260200190815260200160002060006101000a81548173ffffffffffffffffffffffffffffffffffffffff021916908373ffffffffffffffffffffffffffffffffffffffff160217905550808273ffffffffffffffffffffffffffffffffffffffff168473ffffffffffffffffffffffffffffffffffffffff167fddf252ad1be2c89b69c2b068fc378daa952ba7f163c4a11628f55a4df523b3ef60405160405180910390a46124d1838383612ce0565b505050565b6125708383836040516024016124ee93929190613d61565b6040516020818303038152906040527ff362ca59000000000000000000000000000000000000000000000000000000007bffffffffffffffffffffffffffffffffffffffffffffffffffffffff19166020820180517bffffffffffffffffffffffffffffffffffffffffffffffffffffffff8381831617835250505050612cb2565b505050565b61260d828260405160240161258b929190613eb4565b6040516020818303038152906040527f9710a9d0000000000000000000000000000000000000000000000000000000007bffffffffffffffffffffffffffffffffffffffffffffffffffffffff19166020820180517bffffffffffffffffffffffffffffffffffffffffffffffffffffffff8381831617835250505050612cb2565b5050565b8173ffffffffffffffffffffffffffffffffffffffff168373ffffffffffffffffffffffffffffffffffffffff161415612680576040517f08c379a000000000000000000000000000000000000000000000000000000000815260040161267790613fa2565b60405180910390fd5b80600560008573ffffffffffffffffffffffffffffffffffffffff1673ffffffffffffffffffffffffffffffffffffffff16815260200190815260200160002060008473ffffffffffffffffffffffffffffffffffffffff1673ffffffffffffffffffffffffffffffffffffffff16815260200190815260200160002060006101000a81548160ff0219169083151502179055508173ffffffffffffffffffffffffffffffffffffffff168373ffffffffffffffffffffffffffffffffffffffff167f17307eab39ab6107e8899845ad3d59bd9653f200f220920489ca2b5937696c31836040516127719190613d24565b60405180910390a3505050565b61278984848461226f565b61279584848484612ce5565b6127d4576040517f08c379a00000000000000000000000000000000000000000000000000000000081526004016127cb90613f22565b60405180910390fd5b50505050565b60606000821415612822576040518060400160405280600181526020017f30000000000000000000000000000000000000000000000000000000000000008152509050612982565b600082905060005b6000821461285457808061283d90614556565b915050600a8261284d919061437e565b915061282a565b60008167ffffffffffffffff811115612896577f4e487b7100000000000000000000000000000000000000000000000000000000600052604160045260246000fd5b6040519080825280601f01601f1916602001820160405280156128c85781602001600182028036833780820191505090505b5090505b6000851461297b576001826128e19190614409565b9150600a856128f091906145cd565b60306128fc9190614328565b60f81b818381518110612938577f4e487b7100000000000000000000000000000000000000000000000000000000600052603260045260246000fd5b60200101907effffffffffffffffffffffffffffffffffffffffffffffffffffffffffffff1916908160001a905350600a85612974919061437e565b94506128cc565b8093505050505b919050565b606060008251905060008114156129b05760405180602001604052806000815250915050612b40565b600060036002836129c19190614328565b6129cb919061437e565b60046129d791906143af565b905060006020826129e89190614328565b67ffffffffffffffff811115612a27577f4e487b7100000000000000000000000000000000000000000000000000000000600052604160045260246000fd5b6040519080825280601f01601f191660200182016040528015612a595781602001600182028036833780820191505090505b5090506000604051806060016040528060408152602001614db2604091399050600181016020830160005b86811015612afd5760038101905062ffffff818a015116603f8160121c168401518060081b905060ff603f83600c1c1686015116810190508060081b905060ff603f8360061c1686015116810190508060081b905060ff603f831686015116810190508060e01b90508084526004840193505050612a84565b506003860660018114612b175760028114612b2757612b32565b613d3d60f01b6002830352612b32565b603d60f81b60018303525b508484525050819450505050505b919050565b612be184848484604051602401612b5f9493929190613e00565b6040516020818303038152906040527fd5cf17d0000000000000000000000000000000000000000000000000000000007bffffffffffffffffffffffffffffffffffffffffffffffffffffffff19166020820180517bffffffffffffffffffffffffffffffffffffffffffffffffffffffff8381831617835250505050612cb2565b50505050565b600081600001549050919050565b612c0f828260405180602001604052806000815250612e7c565b5050565b612cad838383604051602401612c2b93929190613ee4565b6040516020818303038152906040527f969cdd03000000000000000000000000000000000000000000000000000000007bffffffffffffffffffffffffffffffffffffffffffffffffffffffff19166020820180517bffffffffffffffffffffffffffffffffffffffffffffffffffffffff8381831617835250505050612cb2565b505050565b60008151905060006a636f6e736f6c652e6c6f679050602083016000808483855afa5050505050565b505050565b505050565b6000612d068473ffffffffffffffffffffffffffffffffffffffff16612ed7565b15612e6f578373ffffffffffffffffffffffffffffffffffffffff1663150b7a02612d2f6120d0565b8786866040518563ffffffff1660e01b8152600401612d519493929190613c7f565b602060405180830381600087803b158015612d6b57600080fd5b505af1925050508015612d9c57506040513d601f19601f82011682018060405250810190612d99919061347d565b60015b612e1f573d8060008114612dcc576040519150601f19603f3d011682016040523d82523d6000602084013e612dd1565b606091505b50600081511415612e17576040517f08c379a0000000000000000000000000000000000000000000000000000000008152600401612e0e90613f22565b60405180910390fd5b805181602001fd5b63150b7a0260e01b7bffffffffffffffffffffffffffffffffffffffffffffffffffffffff1916817bffffffffffffffffffffffffffffffffffffffffffffffffffffffff191614915050612e74565b600190505b949350505050565b612e868383612efa565b612e936000848484612ce5565b612ed2576040517f08c379a0000000000000000000000000000000000000000000000000000000008152600401612ec990613f22565b60405180910390fd5b505050565b6000808273ffffffffffffffffffffffffffffffffffffffff163b119050919050565b600073ffffffffffffffffffffffffffffffffffffffff168273ffffffffffffffffffffffffffffffffffffffff161415612f6a576040517f08c379a0000000000000000000000000000000000000000000000000000000008152600401612f6190614062565b60405180910390fd5b612f7381612064565b15612fb3576040517f08c379a0000000000000000000000000000000000000000000000000000000008152600401612faa90613f62565b60405180910390fd5b612fbf60008383612cdb565b6001600360008473ffffffffffffffffffffffffffffffffffffffff1673ffffffffffffffffffffffffffffffffffffffff168152602001908152602001600020600082825461300f9190614328565b92505081905550816002600083815260200190815260200160002060006101000a81548173ffffffffffffffffffffffffffffffffffffffff021916908373ffffffffffffffffffffffffffffffffffffffff160217905550808273ffffffffffffffffffffffffffffffffffffffff16600073ffffffffffffffffffffffffffffffffffffffff167fddf252ad1be2c89b69c2b068fc378daa952ba7f163c4a11628f55a4df523b3ef60405160405180910390a46130d060008383612ce0565b5050565b6040518060a0016040528060608152602001606081526020016000815260200160008152602001600081525090565b6040518060c001604052806000815260200160608152602001606081526020016000815260200160008152602001600081525090565b828054613145906144f3565b90600052602060002090601f01602090048101928261316757600085556131ae565b82601f1061318057805160ff19168380011785556131ae565b828001600101855582156131ae579182015b828111156131ad578251825591602001919060010190613192565b5b5090506131bb91906131bf565b5090565b5b808211156131d85760008160009055506001016131c0565b5090565b60006131ef6131ea8461426a565b614245565b90508281526020810184848401111561320757600080fd5b6132128482856144b1565b509392505050565b60008135905061322981614d0d565b92915050565b60008135905061323e81614d24565b92915050565b60008135905061325381614d3b565b92915050565b60008151905061326881614d3b565b92915050565b600082601f83011261327f57600080fd5b813561328f8482602086016131dc565b91505092915050565b6000813590506132a781614d52565b92915050565b6000602082840312156132bf57600080fd5b60006132cd8482850161321a565b91505092915050565b600080604083850312156132e957600080fd5b60006132f78582860161321a565b92505060206133088582860161321a565b9150509250929050565b60008060006060848603121561332757600080fd5b60006133358682870161321a565b93505060206133468682870161321a565b925050604061335786828701613298565b9150509250925092565b6000806000806080858703121561337757600080fd5b60006133858782880161321a565b94505060206133968782880161321a565b93505060406133a787828801613298565b925050606085013567ffffffffffffffff8111156133c457600080fd5b6133d08782880161326e565b91505092959194509250565b600080604083850312156133ef57600080fd5b60006133fd8582860161321a565b925050602061340e8582860161322f565b9150509250929050565b6000806040838503121561342b57600080fd5b60006134398582860161321a565b925050602061344a85828601613298565b9150509250929050565b60006020828403121561346657600080fd5b600061347484828501613244565b91505092915050565b60006020828403121561348f57600080fd5b600061349d84828501613259565b91505092915050565b6000602082840312156134b857600080fd5b60006134c684828501613298565b91505092915050565b60006134db8383613a0b565b905092915050565b6134ec8161443d565b82525050565b6135036134fe8261443d565b61459f565b82525050565b6000613514826142ab565b61351e81856142d9565b9350836020820285016135308561429b565b8060005b8581101561356c578484038952815161354d85826134cf565b9450613558836142cc565b925060208a01995050600181019050613534565b50829750879550505050505092915050565b6135878161444f565b82525050565b6000613598826142b6565b6135a281856142ea565b93506135b28185602086016144c0565b6135bb816146ba565b840191505092915050565b60006135d1826142c1565b6135db81856142fb565b93506135eb8185602086016144c0565b6135f4816146ba565b840191505092915050565b600061360a826142c1565b613614818561430c565b93506136248185602086016144c0565b61362d816146ba565b840191505092915050565b6000613643826142c1565b61364d818561431d565b935061365d8185602086016144c0565b80840191505092915050565b600061367660098361431d565b9150613681826146d8565b600982019050919050565b600061369960098361431d565b91506136a482614701565b600982019050919050565b60006136bc60328361430c565b91506136c78261472a565b604082019050919050565b60006136df60258361430c565b91506136ea82614779565b604082019050919050565b6000613702601c8361430c565b915061370d826147c8565b602082019050919050565b6000613725600e8361431d565b9150613730826147f1565b600e82019050919050565b600061374860248361430c565b91506137538261481a565b604082019050919050565b600061376b60198361430c565b915061377682614869565b602082019050919050565b600061378e602c8361430c565b915061379982614892565b604082019050919050565b60006137b160388361430c565b91506137bc826148e1565b604082019050919050565b60006137d4602a8361430c565b91506137df82614930565b604082019050919050565b60006137f760298361430c565b91506138028261497f565b604082019050919050565b600061381a60628361431d565b9150613825826149ce565b606282019050919050565b600061383d602d8361430c565b915061384882614a69565b604082019050919050565b600061386060048361431d565b915061386b82614ab8565b600482019050919050565b600061388360208361430c565b915061388e82614ae1565b602082019050919050565b60006138a6602c8361430c565b91506138b182614b0a565b604082019050919050565b60006138c960218361430c565b91506138d482614b59565b604082019050919050565b60006138ec601d8361431d565b91506138f782614ba8565b601d82019050919050565b600061390f60318361430c565b915061391a82614bd1565b604082019050919050565b600061393260288361430c565b915061393d82614c20565b604082019050919050565b6000613955603d8361431d565b915061396082614c6f565b603d82019050919050565b6000613978602d8361431d565b915061398382614cbe565b602d82019050919050565b600060a08301600083015184820360008601526139ab82826135c6565b915050602083015184820360208601526139c582826135c6565b91505060408301516139da6040860182613b2b565b5060608301516139ed6060860182613b2b565b506080830151613a006080860182613b2b565b508091505092915050565b600060c083016000830151613a236000860182613b2b565b5060208301518482036020860152613a3b82826135c6565b91505060408301518482036040860152613a5582826135c6565b9150506060830151613a6a6060860182613b2b565b506080830151613a7d6080860182613b2b565b5060a0830151613a9060a0860182613b2b565b508091505092915050565b600060c083016000830151613ab36000860182613b2b565b5060208301518482036020860152613acb82826135c6565b91505060408301518482036040860152613ae582826135c6565b9150506060830151613afa6060860182613b2b565b506080830151613b0d6080860182613b2b565b5060a0830151613b2060a0860182613b2b565b508091505092915050565b613b34816144a7565b82525050565b613b43816144a7565b82525050565b613b5a613b55826144a7565b6145c3565b82525050565b6000613b6b82613669565b9150613b778289613638565b9150613b828261368c565b9150613b8e8288613638565b9150613b998261380d565b9150613ba58287613638565b9150613bb082613948565b9150613bbc8286613638565b9150613bc782613718565b9150613bd38285613638565b9150613bde8261396b565b9150613bea8284613638565b9150613bf582613853565b9150819050979650505050505050565b6000613c10826138df565b9150613c1c8284613638565b915081905092915050565b6000613c338286613b49565b602082019150613c438285613b49565b602082019150613c5382846134f2565b601482019150819050949350505050565b6000602082019050613c7960008301846134e3565b92915050565b6000608082019050613c9460008301876134e3565b613ca160208301866134e3565b613cae6040830185613b3a565b8181036060830152613cc0818461358d565b905095945050505050565b6000606082019050613ce060008301866134e3565b613ced6020830185613b3a565b613cfa6040830184613b3a565b949350505050565b60006020820190508181036000830152613d1c8184613509565b905092915050565b6000602082019050613d39600083018461357e565b92915050565b60006020820190508181036000830152613d5981846135ff565b905092915050565b60006060820190508181036000830152613d7b81866135ff565b90508181036020830152613d8f81856135ff565b9050613d9e6040830184613b3a565b949350505050565b60006080820190508181036000830152613dc081876135ff565b90508181036020830152613dd481866135ff565b9050613de36040830185613b3a565b8181036060830152613df581846135ff565b905095945050505050565b60006080820190508181036000830152613e1a81876135ff565b90508181036020830152613e2e81866135ff565b9050613e3d6040830185613b3a565b613e4a6060830184613b3a565b95945050505050565b600060a0820190508181036000830152613e6d81886135ff565b90508181036020830152613e8181876135ff565b9050613e906040830186613b3a565b613e9d6060830185613b3a565b613eaa6080830184613b3a565b9695505050505050565b60006040820190508181036000830152613ece81856135ff565b9050613edd6020830184613b3a565b9392505050565b60006060820190508181036000830152613efe81866135ff565b9050613f0d6020830185613b3a565b613f1a6040830184613b3a565b949350505050565b60006020820190508181036000830152613f3b816136af565b9050919050565b60006020820190508181036000830152613f5b816136d2565b9050919050565b60006020820190508181036000830152613f7b816136f5565b9050919050565b60006020820190508181036000830152613f9b8161373b565b9050919050565b60006020820190508181036000830152613fbb8161375e565b9050919050565b60006020820190508181036000830152613fdb81613781565b9050919050565b60006020820190508181036000830152613ffb816137a4565b9050919050565b6000602082019050818103600083015261401b816137c7565b9050919050565b6000602082019050818103600083015261403b816137ea565b9050919050565b6000602082019050818103600083015261405b81613830565b9050919050565b6000602082019050818103600083015261407b81613876565b9050919050565b6000602082019050818103600083015261409b81613899565b9050919050565b600060208201905081810360008301526140bb816138bc565b9050919050565b600060208201905081810360008301526140db81613902565b9050919050565b600060208201905081810360008301526140fb81613925565b9050919050565b6000602082019050818103600083015261411c818461398e565b905092915050565b6000602082019050818103600083015261413e8184613a9b565b905092915050565b600060208201905061415b6000830184613b3a565b92915050565b600060c0820190506141766000830189613b3a565b818103602083015261418881886135ff565b9050818103604083015261419c81876135ff565b90506141ab6060830186613b3a565b6141b86080830185613b3a565b6141c560a0830184613b3a565b979650505050505050565b60006040820190506141e56000830185613b3a565b6141f26020830184613b3a565b9392505050565b600060808201905061420e6000830187613b3a565b61421b6020830186613b3a565b818103604083015261422d81856135ff565b905061423c6060830184613b3a565b95945050505050565b600061424f614260565b905061425b8282614525565b919050565b6000604051905090565b600067ffffffffffffffff8211156142855761428461468b565b5b61428e826146ba565b9050602081019050919050565b6000819050602082019050919050565b600081519050919050565b600081519050919050565b600081519050919050565b6000602082019050919050565b600082825260208201905092915050565b600082825260208201905092915050565b600082825260208201905092915050565b600082825260208201905092915050565b600081905092915050565b6000614333826144a7565b915061433e836144a7565b9250827fffffffffffffffffffffffffffffffffffffffffffffffffffffffffffffffff03821115614373576143726145fe565b5b828201905092915050565b6000614389826144a7565b9150614394836144a7565b9250826143a4576143a361462d565b5b828204905092915050565b60006143ba826144a7565b91506143c5836144a7565b9250817fffffffffffffffffffffffffffffffffffffffffffffffffffffffffffffffff04831182151516156143fe576143fd6145fe565b5b828202905092915050565b6000614414826144a7565b915061441f836144a7565b925082821015614432576144316145fe565b5b828203905092915050565b600061444882614487565b9050919050565b60008115159050919050565b60007fffffffff0000000000000000000000000000000000000000000000000000000082169050919050565b600073ffffffffffffffffffffffffffffffffffffffff82169050919050565b6000819050919050565b82818337600083830152505050565b60005b838110156144de5780820151818401526020810190506144c3565b838111156144ed576000848401525b50505050565b6000600282049050600182168061450b57607f821691505b6020821081141561451f5761451e61465c565b5b50919050565b61452e826146ba565b810181811067ffffffffffffffff8211171561454d5761454c61468b565b5b80604052505050565b6000614561826144a7565b91507fffffffffffffffffffffffffffffffffffffffffffffffffffffffffffffffff821415614594576145936145fe565b5b600182019050919050565b60006145aa826145b1565b9050919050565b60006145bc826146cb565b9050919050565b6000819050919050565b60006145d8826144a7565b91506145e3836144a7565b9250826145f3576145f261462d565b5b828206905092915050565b7f4e487b7100000000000000000000000000000000000000000000000000000000600052601160045260246000fd5b7f4e487b7100000000000000000000000000000000000000000000000000000000600052601260045260246000fd5b7f4e487b7100000000000000000000000000000000000000000000000000000000600052602260045260246000fd5b7f4e487b7100000000000000000000000000000000000000000000000000000000600052604160045260246000fd5b6000601f19601f8301169050919050565b60008160601b9050919050565b7f7b226e616d65223a220000000000000000000000000000000000000000000000600082015250565b7f2d2d4e465420233a200000000000000000000000000000000000000000000000600082015250565b7f4552433732313a207472616e7366657220746f206e6f6e20455243373231526560008201527f63656976657220696d706c656d656e7465720000000000000000000000000000602082015250565b7f4552433732313a207472616e736665722066726f6d20696e636f72726563742060008201527f6f776e6572000000000000000000000000000000000000000000000000000000602082015250565b7f4552433732313a20746f6b656e20616c7265616479206d696e74656400000000600082015250565b7f2c20226d61785f76616c7565223a000000000000000000000000000000000000600082015250565b7f4552433732313a207472616e7366657220746f20746865207a65726f2061646460008201527f7265737300000000000000000000000000000000000000000000000000000000602082015250565b7f4552433732313a20617070726f766520746f2063616c6c657200000000000000600082015250565b7f4552433732313a206f70657261746f7220717565727920666f72206e6f6e657860008201527f697374656e7420746f6b656e0000000000000000000000000000000000000000602082015250565b7f4552433732313a20617070726f76652063616c6c6572206973206e6f74206f7760008201527f6e6572206e6f7220617070726f76656420666f7220616c6c0000000000000000602082015250565b7f4552433732313a2062616c616e636520717565727920666f7220746865207a6560008201527f726f206164647265737300000000000000000000000000000000000000000000602082015250565b7f4552433732313a206f776e657220717565727920666f72206e6f6e657869737460008201527f656e7420746f6b656e0000000000000000000000000000000000000000000000602082015250565b7f222c20226465736372697074696f6e223a20225468697320697320616e204e4660008201527f542074686174206c6574732070656f706c6520706c617920696e20746865206760208201527f616d65204d657461766572736520536c6179657221222c2022696d616765223a60408201527f2022000000000000000000000000000000000000000000000000000000000000606082015250565b7f4572726f723a20636861726163746572206d757374206861766520485020746f60008201527f2061747461636b20626f73732e00000000000000000000000000000000000000602082015250565b7f7d205d7d00000000000000000000000000000000000000000000000000000000600082015250565b7f4552433732313a206d696e7420746f20746865207a65726f2061646472657373600082015250565b7f4552433732313a20617070726f76656420717565727920666f72206e6f6e657860008201527f697374656e7420746f6b656e0000000000000000000000000000000000000000602082015250565b7f4552433732313a20617070726f76616c20746f2063757272656e74206f776e6560008201527f7200000000000000000000000000000000000000000000000000000000000000602082015250565b7f646174613a6170706c69636174696f6e2f6a736f6e3b6261736536342c000000600082015250565b7f4552433732313a207472616e736665722063616c6c6572206973206e6f74206f60008201527f776e6572206e6f7220617070726f766564000000000000000000000000000000602082015250565b7f4574746f723a20626f7373206d757374206861766520485020746f206174746160008201527f636820626f73732e000000000000000000000000000000000000000000000000602082015250565b7f222c202261747472696275746573223a205b207b202274726169745f7479706560008201527f223a20224865616c746820506f696e7473222c202276616c7565223a20000000602082015250565b7f7d2c207b202274726169745f74797065223a202241747461636b2044616d616760008201527f65222c202276616c7565223a2000000000000000000000000000000000000000602082015250565b614d168161443d565b8114614d2157600080fd5b50565b614d2d8161444f565b8114614d3857600080fd5b50565b614d448161445b565b8114614d4f57600080fd5b50565b614d5b816144a7565b8114614d6657600080fd5b5056fe506c617965722061747461636b656420626f73732e204e657720626f73732068703a202573416c6c792061747461636b656420626f73732e204e657720626f73732068703a2025734142434445464748494a4b4c4d4e4f505152535455565758595a6162636465666768696a6b6c6d6e6f707172737475767778797a303132333435363738392b2f426f73732061747461636b656420706c617965722e204e657720706c617965722068703a2025730a4d696e746564204e465420772f20746f6b656e496420256420616e6420636861726163746572496e646578202573257320697320636f6d65212e2041747461636b20706f7765722069732025732c200a506c6179657220772f206368617261637465722025732061626f757420746f2061747461636b2e2048617320257320485020616e64202573204144a264697066735822122057a43e671c970684d16181a9b1b42fb61ab59a66741bc62931bcd6de101e43e964736f6c63430008040033446f6e6520696e697469616c697a696e6720257320772f2048502025732c20696d67202573446f6e6520696e697469616c697a696e6720626f737320257320772f2048502025732c20696d67202573",
  "linkReferences": {},
  "deployedLinkReferences": {}
}